:100000000C946C010C94B3010C94B3010C94B301E7
:100010000C94B3010C94B3010C94B3010C94B30190
:100020000C94B3010C94B3010C94501A0C94241B3F
:100030000C94D6110C94B3010C94B3010C94B3013D
:100040000C94B3010C94B3010C94B3010C94B30160
:100050000C94B3010C943C120C94B3010C94B301B6
:100060000C94B3010C94B3010C94B3010C94B30140
:100070000C94B3010C94B3010C94B3010C94B30130
:100080000C94B3010C94B3010C94B3010C94B30120
:100090000C94B3010C94B3010C94B3010C94B30110
:1000A0000C94B3010C94B3010C94B30153003900C8
:1000B000AE00AD00010001000100010001000100DF
:1000C0000100010001000100010001000100010028
:1000D0000100010001000100010001000100010018
:1000E0000100010001000100010001000100010008
:1000F00001000100010001000100010001000100F8
:1001000001000100010001000100010001000100E7
:1001100001000100010001000100010001000100D7
:1001200001000100010001000100010012036B0049
:100130006500790062006F006100720064000000D9
:10014000160371006D006B006200750069006C00A1
:1001500064006500720000000403090409026D00D8
:10016000040100A0FA0904000001030101000921B3
:10017000110100012240000705810308000A09045B
:1001800001000103010200092111010001224D00BB
:100190000705820308000A090402000103000000A9
:1001A0000921110100012236000705830308000A16
:1001B00009040300010300000009211101000122CC
:1001C000390007058403200001120110010000001E
:1001D00008EDFE606001000102000105010906A1B1
:1001E00001050719E029E71500250195087501812A
:1001F00002050819012905950575019102950175FA
:100200000391010507190029F71500250195F875D7
:10021000018102C005010980A101850216010026A5
:1002200003001A81002A8300751095018100C00522
:100230000C0901A1018503160100269C021A010088
:100240002A9C02751095018100C005010902A101D7
:100250000901A100050919012905150025019505C8
:10026000750181029501750381010501093009318C
:100270001581257F95027508810609381581257F2E
:10028000950175088106050C0A38021581257F95B0
:100290000175088106C0C005010906A101050719FD
:1002A000E029E71500250195087501810295017582
:1002B0000881010508190129059505750191029527
:1002C00001750391010507190029FF150026FF009C
:1002D000950675088100C00011241FBECFEFDAE03B
:1002E000DEBFCDBF04B603FE27C08091F701909119
:1002F000F801A091F901B091FA018730904BA74025
:10030000B04BD1F41092F7011092F8011092F9015C
:100310001092FA0114BE84B7877F84BF0FB6F89499
:10032000A8958091600088618093600010926000C1
:100330000FBEE0E0F8E3099511E0A0E0B1E0ECE6E3
:10034000FDE302C005900D92AA32B107D9F721E072
:10035000AAE2B1E001C01D92A73FB207E1F70E94F7
:100360009D170C94651E0C94000090E080E00895A9
:100370000895089581E00895089581E008950C940A
:10038000BA010E948C0A2FEF84E39CE02150804048
:100390009040E1F700C000000C945F12FF920F93B1
:1003A0001F93CF93DF938C01FC01C081D181809199
:1003B0004C0181113FC082818823B9F1CE010E9496
:1003C000B90FF82E682FCE010E94680FBE018F2D45
:1003D0000E940303EC01B8010E94BF01882309F4C5
:1003E0004AC0B801CE010E940C05882309F443C01D
:1003F000C531F0E7DF0718F5C23080E7D80708F00D
:100400004BC0C115E0E7DE0789F1C130D047D1F11B
:1004100081E080932C0180932D01C801DF91CF9161
:100420001F910F91FF900C94BD01CE010E94930F7C
:10043000F82ECCCFCE010E94B90FBE01C9CFCC336C
:1004400080E7D80709F49AC0CD33D04709F7F801FF
:100450008281882309F4B9C010922D010E940612EE
:1004600090932B0180932A0180E295C0F80182814C
:1004700081110E94C10180E0DF91CF911F910F9106
:10048000FF900895F80182818823A9F38091B70134
:1004900081608093B701EFCFF8018281882309F44E
:1004A000BCCF0E946711811102C00E944D110E94B1
:1004B000841190E09093E9018093E801FE01E350FC
:1004C000F0478091E8018160E231F10538F4E959A3
:1004D000F14E0C94151E8091E80182608093E80132
:1004E0008091E8010E9488110E948C0AC4CF8091FB
:1004F000E8018460F3CF8091E8018860EFCF8091BC
:10050000E8018061EBCF8091E8018062E7CF8091C4
:10051000E8018064E3CF8091E8018068DFCF8091BB
:10052000E8018C60DBCF8091E8018E7FD7CF80918E
:10053000E8018D7FD3CF8091E8018B7FCFCF809171
:10054000E801877FCBCF8091E8018F7EC7CF809174
:10055000E8018F7DC3CF8091E8018F7BBFCF809171
:10056000E8018F77BBCF8091E801837FB7CF90916F
:10057000E801892F97FB87F98058B0CFF801828175
:10058000882361F010922C010E94061290932B0197
:1005900080932A0182E00E9442086DCF80912C0155
:1005A00081110FC080912A0190912B010E9412129B
:1005B000883C910530F486E20E94170786E20E948B
:1005C000F30782E00E94490856CF80912D018111E6
:1005D0000FC080912A0190912B010E941212883C39
:1005E000910530F487E20E94170787E20E94F30723
:1005F00080E2E8CF0C945B050C945D050C94BC0183
:100600000C94FE020895E82FF0E0EE0FFF1FE70FB5
:10061000F11DEE0FFF1FE60FF11DEE0FFF1FE4555A
:10062000FF4F859194910895FC01EE0FFF1FE45D4B
:10063000FE4F8591949108950E9403030E949004B7
:10064000811520E4920708F08FC0811540E39407DC
:1006500008F0ECC0803E910508F073C0803C910525
:1006600008F0D0C0883A910590F4853A910508F0D9
:10067000CEC08130910509F470C0009709F46DC0B7
:100680008430910508F069C090E080E008958D3BCA
:100690009105D0F7883A910509F403C1893A91058B
:1006A00009F402C18A3A910509F401C18B3A910516
:1006B00009F400C18C3A910509F4FFC08B3B910508
:1006C00009F4FEC08C3B910509F4FDC08D3A9105FB
:1006D00009F4FCC0803B910509F4FBC08E3A9105FA
:1006E00009F4FAC08F3A910509F4F9C0813B9105EC
:1006F00009F4F8C0823B910509F4F7C0833B9105EA
:1007000009F4F6C0843B910509F4F5C0853B9105D9
:1007100009F4F4C0863B910509F4F3C0873B9105C9
:1007200009F4F2C0883B910509F4F1C0893B9105B9
:1007300009F4F0C08A3B910509F4EFC080E094E42D
:1007400008958F3F910509F048F4803F910508F026
:1007500069C0883E910508F097CF0895811560E241
:10076000960708F061C00895811573E5970770F545
:10077000811522E5920708F064C0811541E59407D0
:1007800008F05AC0811560E5960708F452C09C0134
:1007900054E0369527955A95E1F7922F9370282FBC
:1007A00026952695237070E2279F90011124392BFE
:1007B000837041E050E0BA0102C0660F771F8A954E
:1007C000E2F7CB01822B932B9C680895811575E588
:1007D000970750F4811524E5920708F443C0982F39
:1007E0008827846F906A0895811546E5940708F478
:1007F0004DC09C0130569F702115304108F044CF08
:1008000090620895805C91090E9414030895853ACE
:10081000910509F440C0863A910509F03FC082E88D
:1008200090E40895906508959F70EECF9927906C9D
:1008300008959F70906A0895982F8827816F906A15
:100840000895AC014370552721E030E002C0220F2B
:10085000331F4A95E2F78695869570E2879FC0011F
:100860001124B0CFAC014370552721E030E002C025
:10087000220F331F4A95E2F78695869540E2849FC2
:10088000C0011124822B932B9A680895982F8827F2
:1008900088279F71B5CF81E890E4089583E890E4BC
:1008A000089582EE94E4089589EE94E408958AEE22
:1008B00094E4089585EB94E4089586EB94E4089518
:1008C00083EB94E4089584EB94E4089587EB94E437
:1008D00008958CEC94E408958DEC94E4089583E8F5
:1008E00095E408958AE895E4089582E995E40895E9
:1008F00084E995E4089581E296E4089583E296E41C
:10090000089584E296E4089585E296E4089586E2E7
:1009100096E4089587E296E408958AE296E41DCF6E
:100920008238910549F1B0F48133910509F462C030
:1009300048F48932910509F456C08A32910509F4C8
:1009400060C008958533910509F446C08933910547
:1009500099F00895833E910531F138F4803E910578
:1009600091F0823E9105B1F00895863E910521F106
:10097000873E910551F108952091E8012370D9F047
:1009800080EE90E008952091E80120FF14C089E3F3
:1009900090E008952091E80122FF0DC024FD09C0D8
:1009A00083EE90E008952091E80122FD31C024FFFC
:1009B00002C090E080E008952091E80123FFFBCF82
:1009C00024FDF7CF87EE90E008952091E80123FF02
:1009D000EECF86EE90E008952091E80125FFEBCF61
:1009E00089E290E008952091E80125FFE4CF85E3B6
:1009F00090E008952091E80126FFDDCF8AE290E0A3
:100A000008952091E80126FFD6CF81E390E0089574
:100A100082EE90E0089508950F931F93CF938C0179
:100A2000FB018281811106C0C1E08C2FCF911F9103
:100A30000F910895C0913B01C11125C005311047A8
:100A400099F70E940B0581E080933B010E940612FA
:100A500090933A018093390110922E011092300147
:100A600010922F0110923201109231011092340134
:100A70001092330110923601109235011092380114
:100A800010923701D2CF8091390190913A010E94A2
:100A90001212883C910540F680912E01E82FF0E07B
:100AA000EE0FFF1FE15DFE4F118300838F5F809388
:100AB0002E01C0E0BACF0C94B8010C94B90185B7EF
:100AC000806885BF85B7806885BF54985C9A3E98DA
:100AD000469A6E98769A57985F9AAEE3B1E01C9268
:100AE000ECE3F1E0108211961C9211820C94FA0250
:100AF000BF92CF92DF92EF92FF920F931F93CF930B
:100B0000DF938CE3C82E81E0D82EC3E1D1E00EE361
:100B100011E0EE24E394F12CBB24B394F601508150
:100B200011926F018991E82FE295EF70F0E091A1A9
:100B30008F70970101C0220F8A95EAF7892F822BC7
:100B400081A392A1422F4095942392A380EA8A9593
:100B5000F1F7D601119781E0669980E09C91892B8D
:100B60008C934F993AC092E0892B8C9381A1842376
:100B700081A382A1822B82A38C91581741F0B0925D
:100B800040010E94061290934201809341010C158E
:100B90001D0521F680914001882391F0809141014B
:100BA000909142010E941212069750F080913C01F0
:100BB00080933E0180913D0180933F01109240015E
:100BC0000E94FC0281E0DF91CF911F910F91FF9075
:100BD000EF90DF90CF90BF90089590E0C5CFE82FC1
:100BE000F0E0E25CFE4F8081089508959093480103
:100BF000809347010895E0914701F09148013097B3
:100C000021F00190F081E02D099480E00895E091B9
:100C10004701F0914801309721F00280F381E02DE7
:100C200009940895E0914701F0914801309721F02F
:100C30000480F581E02D09940895209145013091BB
:100C400046012817390771F09093460180934501BA
:100C5000E0914701F0914801309721F00680F7813B
:100C6000E02D099408952091430130914401281703
:100C7000390771F09093440180934301E09147015B
:100C8000F0914801309721F00084F185E02D09941E
:100C9000089508950C9449060E94FD110E945F0575
:100CA0000C94BA12BF92CF92DF92EF92FF920F9301
:100CB0001F93CF93DF93CDB7DEB72A970FB6F89483
:100CC000DEBF0FBECDBF0E9478058AE4C82E81E04A
:100CD000D82E10E000E0B02E802F0E94EF05F82EF5
:100CE000F601E1906F01E81609F453C08091B70155
:100CF00081FD0E94F505EF24E0FC48C0E1FE49C0FB
:100D000091E081E09E83BF8221E030E0690102C072
:100D1000CC0CDD1C8A95E2F78F2D90E08C219D2173
:100D2000892B09F420E028870E9406128160782F21
:100D30009A8789874E815F8168858A850E94ED0642
:100D4000F801E65BFE4F8081C826C0820E943815FC
:100D50000E94FB0590914901891779F10E94FB05DA
:100D6000809349012A960FB6F894DEBF0FBECDBF1F
:100D7000DF91CF911F910F91FF90EF90DF90CF9077
:100D8000BF900C94000301E010E0A5CF90E080E05C
:100D9000B9CF01301105B9F78FEF89838A831B82A0
:100DA0000E9406128160782F9D838C8349815A812D
:100DB0006B818D810E94ED06C9CF2A960FB6F894FB
:100DC000DEBF0FBECDBFDF91CF911F910F91FF907E
:100DD000EF90DF90CF90BF900895CF93DF93CDB782
:100DE000DEB72B970FB6F894DEBF0FBECDBF4F8393
:100DF000588769877A878B871E821D8285E0FE016E
:100E00003796DE01119601900D928A95E1F749819E
:100E10005A816B817C818D819E812B960FB6F894CF
:100E2000DEBF0FBECDBFDF91CF910C941C0D882388
:100E300009F4D8C0823871F40E94FB0581FDD2C04C
:100E400089E30E9459100E941E1189E30E949610A6
:100E50000C941E11833859F40E94FB0580FDC2C01A
:100E600083E50E9459100E941E1183E5EFCF84385C
:100E700059F40E94FB0582FDB5C087E40E94591019
:100E80000E941E1187E4E2CF9CEF980F913A18F46C
:100E90000E945910DDCF90E2980F983050F487707F
:100EA00091E001C0990F8A95EAF7892F0E94D81026
:100EB000CFCF9BE5980F933070F4853A31F0863AA6
:100EC00039F083E890E00C941D0681E890E0FBCFB8
:100ED00082E890E0F8CF98E5980F953108F082C04D
:100EE000883A09F440C0893A09F440C08A3A09F4C2
:100EF00040C08B3A09F440C08C3A09F440C08B3BA7
:100F000009F440C08C3B09F440C08D3A09F440C05C
:100F1000803B09F440C08E3A09F440C08F3A09F48E
:100F200040C0813B09F440C0823B09F440C0833B90
:100F300009F440C0843B09F440C0853B09F440C03B
:100F4000863B09F440C0873B09F440C0883B09F464
:100F500040C0893B09F440C08A3B09F440C090E09E
:100F600080E00C94330682EE90E0FBCF89EE90E0B7
:100F7000F8CF8AEE90E0F5CF85EB90E0F2CF86EBEC
:100F800090E0EFCF83EB90E0ECCF84EB90E0E9CF03
:100F900087EB90E0E6CF8CEC90E0E3CF8DEC90E037
:100FA000E0CF83E891E0DDCF8AE891E0DACF82E913
:100FB00091E0D7CF84E991E0D4CF81E292E0D1CF24
:100FC00083E292E0CECF84E292E0CBCF85E292E062
:100FD000C8CF86E292E0C5CF87E292E0C2CF8AE234
:100FE00092E0BFCF0895882309F44BC0823871F492
:100FF0000E94FB0581FF45C089E30E9459100E94B1
:101000001E1189E30E9496100C941E11833859F426
:101010000E94FB0580FF35C083E50E9459100E94A5
:101020001E1183E5EFCF843859F40E94FB0582FF3F
:1010300028C087E40E9459100E941E1187E4E2CF65
:101040009CEF980F913AF0F290E2980F983050F49C
:10105000877091E001C0990F8A95EAF7892F0E9465
:10106000DE10D2CF9BE5980F933020F490E080E023
:101070000C941D06885A853120F490E080E00C9491
:1010800033060895882321F00E94D8100C941E1175
:101090000895882321F00E94DE100C941E110895FB
:1010A0008F929F92AF92BF92DF92EF92FF920F9337
:1010B0001F93CF93DF937C01D62FC72FFC010581AF
:1010C00002950F70128111110E94F5100E945210AA
:1010D000D82E882371F01123A1F080E28D0F883083
:1010E00080F082E00E943C100E94521091E0D82EC5
:1010F000D926EC2FE295EF70F0E0E758F14E0C9412
:10110000151ED12CF6CF0C2F0F70C07F11F0029559
:10111000007F1123A9F0002359F080E28D0F883061
:1011200010F0D11109C0802F0E94D8100E941E110A
:101130008D2F0E94170714C0802F0E94E810F6CF51
:101140008D2F0E94F307002359F080E28D0F883025
:1011500010F0D11124C0802F0E94DE100E941E11B9
:10116000DD2009F48FC10E942F1080FD8BC1F70193
:1011700012820E9429100E94AC0EC7010E944E0AE2
:101180000E942910DF91CF911F910F91FF90EF9056
:10119000DF90BF90AF909F908F900C94CD0E802FDA
:1011A0000E94EE10DBCFFC2FFF70BF2EC07FC0323D
:1011B00019F0B29480EFB822DD2369F0D13029F123
:1011C000112369F1002359F0F701858180FFB0CF29
:1011D0008F70858304C0112361F0011104C08B2D31
:1011E0000E944208BDCF8B2D0130D1F70E9408111B
:1011F000B7CF011106C00E940B118B2D0E94490828
:10120000AFCF013009F4ACCFF6CF112321F0063077
:1012100008F0A6CFE4CF053008F0A2CFEECF002330
:1012200061F38D2F0E94F3079BCF8C2F86958695B7
:10123000837069F0813009F093CF8D2F9C2F9370CC
:10124000111102C090E080E00E94330689CF8D2FFB
:101250009C2F9370111102C090E080E00E941D0647
:101260007FCF8D2F112329F00E9446140E942D1547
:1012700077CF0E94AE14FACF8C2F837009F047C04D
:1012800011116ECF2D2F229526952770220F220F38
:101290006D2F6F70862E912CB12CA12C022E04C0C4
:1012A000880C991CAA1CBB1C0A94D2F760E070E061
:1012B000CB01D4FF0FC06FE070E080E090E004C08D
:1012C000660F771F881F991F2A95D2F76095709532
:1012D00080959095C695C695C370C23051F080F444
:1012E000682979298A299B29C13071F00E94550EFD
:1012F00037CF682979298A299B290E94710E30CF1E
:101300000E94550EC501B4010E94390E29CF869561
:10131000112311F08C2F8170882309F421CF2D2FF8
:10132000229526952770220F220F6D2F6F70862E23
:10133000912CB12CA12C022E04C0880C991CAA1C43
:10134000BB1C0A94D2F760E070E0CB01D4FF0FC061
:101350006FE070E080E090E004C0660F771F881FA8
:10136000991F2A95D2F76095709580959095C695AE
:10137000C695C370C23051F080F4682979298A2952
:101380009B29C13071F00E942F0FEACE682979297C
:101390008A299B290E944B0FE3CE0E942F0FC50183
:1013A000B4010E94130FDCCEE0E2ED0FE53108F04E
:1013B0004DC0F0E0E757F14E0C94151EDF708C2FF6
:1013C0008F71112321F00E94AC0E8D2F09CF0E9446
:1013D000CD0E8D2F13CF112341F0053008F0C0CE74
:1013E0008C2F8F710E94F20EBBCE063008F0B8CE63
:1013F000F7CF8C2F8F71112339F00E94AC0EB0CE35
:101400008C2F8F711123C9F30E94CD0EA9CE112309
:1014100029F08C2F8F710E94970EA2CE0E948D0E04
:101420009FCE112349F0CF718C2F0E94AC0E63E048
:101430008C2F0E94331094CE81E00E943C10023029
:1014400008F48ECE82E00E943C108ACE112329F04F
:1014500001116ECE8C2F8F71D0CF0111E2CE8C2F67
:101460008F71D2CF4C2F4F706D2FC7010E94B501E5
:101470000E94B60D75CE4C2F4F706D2FC7010E9484
:1014800002036ECEDF91CF911F910F91FF90EF90ED
:10149000DF90BF90AF909F908F9008950F931F9310
:1014A000CF93DF93EC018B819C81892B29F088817C
:1014B000998189238F3F29F4DF91CF911F910F915B
:1014C0000895CE010E94CE018823B1F3688179810D
:1014D0008A810E9405108C010E94670F0E942E0EC7
:1014E000B801CE01DF91CF911F910F910C9450085C
:1014F0000E94F5100E9405110E94CA100E941E1140
:101500000E94D9150E942D1590E080E00E941D06D2
:1015100090E080E00C9433060E94E5100C94780A69
:101520000E94FB0FE92FE295EF70E250EE3070F46D
:10153000F0E0E256F14E0C94151E803F19F020F4B5
:10154000803E20F481E00895843FE1F380E0089537
:10155000803EC0F3813FD1F7F5CF93FB882780F918
:101560000895CF93DF9300D000D00F92CDB7DEB7B0
:101570000F900F900F900F900F90DF91CF910895E3
:10158000CF93DF9300D000D000D0CDB7DEB7269642
:101590000FB6F894DEBF0FBECDBFDF91CF91089597
:1015A0001F93CF93DF93C0914D0116E080914E01C0
:1015B0008C1304C0DF91CF911F910895D0E01C9F40
:1015C000F0011D9FF00D1124E15BFE4F4081518120
:1015D00062817381848195810E94C00A2196C770BF
:1015E000E5CF40917F015091800160918101709120
:1015F000820180918301909184010C94C00A1F9311
:10160000CF93DF9380918401807FC1F48091810129
:101610008823A1F080914D01C0914E0160917F011E
:10162000709180014091820150918301D62FD72380
:10163000DA01A095B09516E0C81304C0DF91CF91F0
:101640001F91089590E04115510511F0DF3F31F4ED
:1016500001968770F1CF2A0F3B1F17C0189FF0012A
:10166000199FF00D1124E15BFE4F21812713F0CF6C
:1016700020812613EDCF22812111EACF23813481ED
:101680002417350740F3241B350B283C310500F7A0
:10169000209184012F7020612093840126E0289FEF
:1016A000F001299FF00D1124EC5AFE4F80818F70BC
:1016B000806180838FE791E00E944E0ADF91CF9195
:1016C0001F910C94D00ABF92CF92DF92EF92FF92BB
:1016D0000F931F93CF93DF93CDB7DEB761970FB60C
:1016E000F894DEBF0FBECDBF8C0185E0F801DE01AE
:1016F0001D9601900D928A95E1F7D8014C911196B3
:101700005C9111971296EC901297809182019091C2
:101710008301009709F47FC120917F0130918001FE
:10172000622F63236F3F09F476C11396CD90DC904E
:10173000B0908101BB2009F413C1C816D906D0F1BD
:10174000F601E81BF90BCF01FF24F394883C9105C7
:1017500008F0F12C80918401982F907FFF2009F4EC
:10176000B6C091117FC0FE2C351329C0241327C0A9
:10177000E11025C08F708061809384010E94F10A7E
:101780008FE791E00E944E0A80918401D80115965E
:101790008C938F2D61960FB6F894DEBF0FBECDBF30
:1017A000DF91CF911F910F91FF90EF90DF90CF903D
:1017B000BF900895809590958C0D9D1DC5CFCD2827
:1017C00029F0852F84238F3F09F033C180E0B82FA3
:1017D000B170DB2E80FF3CC080914D0120914E0105
:1017E00036E0821315C04D875E878D859E850E94E9
:1017F000FB0F292F22952F702230F0F0243018F59E
:101800009F70F1F0F8019581907FD1F4D12C1EC02A
:1018100090E0389FF001399FF00D1124E15BFE4FFD
:101820006181651306C06081641303C06281E612A2
:101830000FC001968770D5CF9F7011F0882331F3C8
:10184000805E883018F3C8010E944E0AFD2CA1CF9B
:10185000EE2009F49ECF8091840181608093840101
:10186000F12C97CF351306C0241304C0D801EE2005
:1018700009F49CC04D875E878D859E850E94900AE5
:10188000882309F4D2C0EE2009F4CFC080918401EE
:10189000803270F020917F013091800138872F8352
:1018A0001986DB86CA868C87CE0107960E944E0A6F
:1018B00086E0F801AFE7B1E001900D928A95E1F77B
:1018C0000E94FF0A0E94F10AFF24F39462CF911153
:1018D00015C07C2DD98AC88A6E2D89890E94B10ACB
:1018E0008FE791E00E944E0A86E0EFE7F1E0DF012A
:1018F0001D928A95E9F70E94F10A4BCF351312C069
:10190000241310C0E1100EC0F8018583C8010E94A5
:101910004E0AEFE7F1E086E0DF011D928A95E9F7D4
:10192000FB2C37CF4D875E878D859E850E94900A60
:10193000882309F47AC0EE2009F477C080918401ED
:10194000803208F4B5CF20917F01309180013A8335
:1019500029831B82DD82CC828E83CE010196A6CFA5
:10196000C816D90688F1F601E81BF90BCF01F12C56
:10197000883C910508F047C0FE2CEE2009F455C0C4
:10198000351330C024132EC08091840180FD21C006
:10199000982F907FF1F0D80115968C931597903F72
:1019A00039F0982F907F905F8F70892B15968C93CC
:1019B000C8010E944E0A86E0F801AFE7B1E001904D
:1019C0000D928A95E1F797CF809590958C0D9D1D8E
:1019D000CECF86E0F801AFE7B1E001900D928A9595
:1019E000E1F7D7CE4D875E878D859E850E94900A50
:1019F00081115ECF80918401816080938401C80150
:101A00000E944E0AC6CE7C2DD98AC88A6E2D89893D
:101A10000E94B10A69CFEE2041F04D875E878D8527
:101A20009E850E94900A811143CFC8010E944E0AF0
:101A30004BCF81E08E25CBCE1F93CF93DF93CDB7D5
:101A4000DEB72C970FB6F894DEBF0FBECDBF4F8325
:101A5000588769877A878B879C87CE0107960E9473
:101A6000630B882369F08A859B85892B39F04F8128
:101A70005885842F85238F3F09F071C016E05FC021
:101A800086E0FE013796DE01119601900D928A954F
:101A9000E1F78A859B85892B89F388859F81892336
:101AA0008F3F61F320914E0130E0C90101968770AC
:101AB000992740914D014817190671F40E948C0A2C
:101AC00010924E0110924D0186E0EFE7F1E0DF0148
:101AD0001D928A95E9F7D2CF96E0929FD001939F0D
:101AE000B00D1124A15BBE4FFE01319601900D9205
:101AF0009A95E1F780934E010E94D00ABFCF819F53
:101B0000C0011124815B9E4F0E94630B8823E9F082
:101B1000E0914D011E9FF0011124E15BFE4F4081D9
:101B2000518162817381848195810E94C00A809174
:101B30004D0190E001968770992780934D01809127
:101B40004D0190914E018913DACF2C960FB6F8947F
:101B5000DEBF0FBECDBFDF91CF911F910895698584
:101B60007A858B859C850E94C00A88CFEF92FF9270
:101B70000F931F93CF93DF938C01892B81F0F12C6E
:101B8000EE24E394E8012196F8018491843770F4FF
:101B9000843008F05FC08130B1F08230A1F1DF9174
:101BA000CF911F910F91FF90EF900895853709F421
:101BB0004CC008F43DC09CE7980F903780F78F77B2
:101BC0000E94F30749C00E5F1F4FFE01849190E20F
:101BD000980F983060F48770FE2D01C0FF0F8A9532
:101BE000EAF78F2F0E94F8100E941E1102C00E9477
:101BF00017078F2D815030F2EFE9FFE03197F1F7B1
:101C000000C00000F7CF0E5F1F4FFE01849190E2ED
:101C1000980F983050F48770FE2D01C0FF0F8A9501
:101C2000EAF78F2F0E94FE10DFCF0E94F307E1CF6B
:101C30000E5F1F4FFE01C491C150D8F28FE99FE0A3
:101C40000197F1F700C00000F7CF0E5F1F4FFE01B4
:101C5000F490CFCF0E9417078E01CBCF08956093E9
:101C60008E0170938F0180939001909391010C9459
:101C7000780A0F931F9300918E0110918F0120918C
:101C8000900130919101DC01CB01802B912BA22B93
:101C9000B32B80938E0190938F01A0939001B0930A
:101CA00091011F910F910C94780A0F931F9300914B
:101CB0008E0110918F012091900130919101DC01F2
:101CC000CB0180239123A223B32380938E01909391
:101CD0008F01A0939001B09391011F910F910C94EB
:101CE000780A0F931F9300918E0110918F0120911C
:101CF000900130919101DC01CB0180279127A2272F
:101D0000B32780938E0190938F01A0939001B0939D
:101D100091011F910F910C94780A10928A011092F0
:101D20008B0110928C0110928D010C94780A41E085
:101D300050E060E070E004C0440F551F661F771F3D
:101D40008A95D2F740938A0150938B0160938C015E
:101D500070938D010C94780A41E050E060E070E0EF
:101D600004C0440F551F661F771F8A95D2F78091D4
:101D70008A0190918B01A0918C01B0918D01842BEF
:101D8000952BA62BB72B80938A0190938B01A09360
:101D90008C01B0938D010C94780A41E050E060E032
:101DA00070E004C0440F551F661F771F8A95D2F755
:101DB000409550956095709580918A0190918B0126
:101DC000A0918C01B0918D0184239523A623B72384
:101DD00080938A0190938B01A0938C01B0938D0125
:101DE0000C94780A41E050E060E070E004C0440FD9
:101DF000551F661F771F8A95D2F780918A019091AF
:101E00008B01A0918C01B0918D0184279527A62785
:101E1000B72780938A0190938B01A0938C01B09394
:101E20008D010C94780A0F931F9300918A011091F1
:101E30008B0120918C0130918D01DC01CB01802B35
:101E4000912BA22BB32B80938A0190938B01A093AB
:101E50008C01B0938D011F910F910C94780A0F9310
:101E60001F9300918A0110918B0120918C01309178
:101E70008D01DC01CB0180239123A223B323809326
:101E80008A0190938B01A0938C01B0938D011F91D7
:101E90000F910C94780A0F931F9300918A0110916F
:101EA0008B0120918C0130918D01DC01CB018027C9
:101EB0009127A227B32780938A0190938B01A09347
:101EC0008C01B0938D011F910F910C94780A0895A5
:101ED000990F890F982F977041E001C0440F9A9590
:101EE000EAF786958695869595E0899FF0011124FD
:101EF000EB57FE4F30E020E070E05191DF01119789
:101F0000CB01022E02C0969587950A94E2F7817064
:101F100081958527842385278C932F5F3F4F25301C
:101F2000310559F70895990F890F982F9770869565
:101F30008695869525E0829FF0011124EB57FE4F90
:101F400050E040E080E0219130E0092E02C036955B
:101F500027950A94E2F721703327042E01C0220F3F
:101F60000A94EAF7822B4F5F5F4F4530510559F7CE
:101F70000895BF92CF92DF92EF92FF920F931F933B
:101F8000CF93DF938C01C0908A01D0908B01E090B9
:101F90008C01F0908D0180918E0190918F01A09124
:101FA0009001B0919101C82AD92AEA2AFB2ACFE1EF
:101FB000D0E0BC2ED701C6010C2E04C0B695A79563
:101FC000979587950A94D2F780FD0EC0219788F7E0
:101FD000B12C8B2DDF91CF911F910F91FF90EF903E
:101FE000DF90CF90BF900895B8018C2F0E941C0302
:101FF000019761F3EECFCF93DF93EC010E94B90F0D
:10200000BE01DF91CF910C941C031F93CF93DF93FC
:10201000EB0190914C01992331F0CB01DF91CF91ED
:102020001F910C94FB0F882379F0CB010E94B90F0C
:10203000182F682FCE010E94680FBE01812FDF91FB
:10204000CF911F910C941C03CB010E94930F182F6A
:10205000F4CF80919201859585958595089580911D
:1020600092018770089598E0899F90011124622B56
:10207000609392010C94AC0E90919201809589230B
:1020800080939201282F277061F4282F082E000CCE
:10209000330B9217130629F08595859585950C9439
:1020A000CD0E089590919201977081E009F480E03F
:1020B0000895909112019923E1F09091E80197FF22
:1020C00018C0E82FE695E695E695EF3139F12091B5
:1020D000000130910101E20FF32FF11D877021E023
:1020E00030E001C0220F8A95EAF78181822B81833B
:1020F00008952091000130910101F90132969FEF7E
:1021000040E05191851751F09F3F19F4511101C0E2
:10211000942F4F5F4E31A9F79F3F09F40895290F7F
:10212000311D97FD3A95F90182830895909112012E
:102130009923F1F09091E80197FF1AC0E82FE695F6
:10214000E695E695EF3129F12091000130910101EA
:10215000E20FF32FF11D282F277081E090E001C0DE
:10216000880F2A95EAF780959181892381830895C4
:102170002091000130910101F9013296205E3F4F1C
:102180009191891303C0DF0111971C92E217F307A5
:10219000B9F7089581E090E0E0910001F09101012C
:1021A000E80FF91F1082019680329105A9F7089572
:1021B0009091B601892B8093B601089580959091F6
:1021C000B60198239093B60108951092B601089530
:1021D0009091B501892B8093B501089580959091D8
:1021E000B50198239093B50108951092B501089513
:1021F0009091B401892B8093B401089580959091BA
:10220000B40198239093B40108951092B4010895F5
:1022100080939301089510929301089520910001F5
:1022200030910101F9013196205E3F4F80E091919C
:1022300091118F5FE217F307D1F70895E091000144
:10224000F09101018091B6018083E0910001F0914D
:10225000010180819091B501892B8083E09100017B
:10226000F091010180819091B401892B808390913C
:102270009301992361F0E0910001F09101018081C7
:10228000892B80830E940E118111109293018091FD
:102290000001909101010C9407066DEE7EEF90E035
:1022A00080E00E944F1E60E082E090E00E943D1EB0
:1022B00060E083E090E00E943D1E60E084E090E0FA
:1022C0000E943D1E60E085E090E00C943D1E90E091
:1022D00080E00E94371E21E08D3E9E4F09F020E0F5
:1022E000822F089582E090E00C942F1E682F82E0E8
:1022F00090E00C943D1E83E090E00C942F1E682F1C
:1023000083E090E00C943D1E84E090E00C942F1E3E
:10231000682F84E090E00C943D1E8091EE018430A3
:1023200039F11092B80188E190E020E40FB6F894FA
:10233000A895809360000FBE2093600080E00E940B
:10234000000383B7817F846083BF83B7816083BFCD
:102350007894889583B78E7F83BF0FB6F894A8953D
:1023600080916000886180936000109260000FBED1
:102370000895089508950E94B9110E9478050E9459
:10238000BA1180E00E94EF0591E0811107C081E061
:102390000E94EF0591E0811101C090E0892F08951E
:1023A0000E948C0A0E94FB050C9400031F921FB62A
:1023B0001F9211248F939F93AF93BF938091B80185
:1023C000811113C08091E4019091E501A091E60193
:1023D000B091E7014196A11DB11D8093E401909356
:1023E000E501A093E601B093E701BF91AF919F9102
:1023F0008F911F901FBE1F90189582E084BD93E0BF
:1024000095BD9AEF97BD80936E0008952FB7F8940D
:102410008091E4019091E501A091E601B091E7017E
:102420002FBF0895CF92DF92EF92FF920F931F93E9
:102430002FB7F8944091E4015091E5016091E601D5
:102440007091E7012FBF6A017B01EE24FF248C010C
:1024500030E020E0C016D106E206F30650F0481B3B
:10246000590BCA011F910F91FF90EF90DF90CF9011
:10247000089541505109F3CF1F921FB61F921124A6
:102480008F939F93AF93BF938091E4019091E50167
:10249000A091E601B091E7010196A11DB11D8093C5
:1024A000E4019093E501A093E601B093E701BF91A9
:1024B000AF919F918F911F901FBE1F9018950E9402
:1024C000D519F8942FEF87EA91E62150804090408B
:1024D000E1F700C0000087E090EBDC018093F7019A
:1024E0009093F801A093F901B093FA0188E19CE080
:1024F0000FB6F894A895809360000FBE909360008B
:10250000FFCF0F931F93CF93DF93C0E0082F10E00E
:102510008C2F0E94EF05D82F80FF08C060E07C2F31
:1025200080E00E94030308171907A1F0D1FD0AC03B
:10253000C13031F480E0DF91CF911F910F91089568
:10254000C1E0E6CF61E07C2F80E00E940303081722
:10255000190771F781E0EFCFCF93C82F8CE20E946B
:102560008112882321F08C2FCF910C94811280E06E
:10257000CF910895CF930E946711811102C00E94EC
:102580004D11C5E608C00E9478058FE39CE90197CC
:10259000F1F700C00000C150B1F789E20E94AC120F
:1025A0008111EFC08AE20E94AC1281110E944D118C
:1025B00085E00E94AC1281110E945F120E9472118C
:1025C0008093B70187E00E94AC12882371F08BE101
:1025D0000E94AC12882309F4B1C09091B701892FF1
:1025E0008D7F91FF82608093B7018091B7010E9437
:1025F00076110E94841190E09093E9018093E801A4
:1026000080EE0E94AC12882341F09091E801892F5E
:102610008E7F90FF81608093E80189E30E94AC1275
:10262000882341F09091E801892F8D7F91FF82608E
:102630008093E80182EE0E94AC12882341F09091D1
:10264000E801892F8B7F92FF84608093E80186EEFA
:102650000E94AC12882341F09091E801892F877F76
:1026600093FF88608093E80183EE0E94AC12882378
:1026700041F09091E801892F8F7E94FF80618093D3
:10268000E80185E30E94AC12882341F09091E801B3
:10269000892F8F7D95FF80628093E80181E30E94FE
:1026A000AC12882341F09091E801892F8F7B96FF2F
:1026B00080648093E80181E10E94AC12882341F09C
:1026C0009091E801892F97FB87F980588093E80162
:1026D0008091E8010E94881187E20E94AC12C82F05
:1026E0008EE10E94AC128111C2608FE10E94AC1297
:1026F0008111C46080E20E94AC128111C86081E245
:102700000E94AC128111C06182E20E94AC12811160
:10271000C06283E20E94AC128111C06484E20E9414
:10272000AC12882341F1C0688C2F0E947F116C2F5E
:1027300070E090E080E0CF910C942F0E8EE00E942C
:10274000AC12882339F09091B701892F8B7F92FFCB
:10275000846049CF80E10E94AC129091B701882338
:1027600029F0892F877F93FF88603DCF892F8E7F47
:1027700090FF816038CFC111D7CF0E947B11682FA5
:10278000D7CFCF9108958091BB0180FF12C0609197
:10279000050185E0689FB0011124759567957595D1
:1027A000679560387105A8F561157105A1F1862F4F
:1027B000089581FF09C06091050185E0689FB0011F
:1027C000112475956795EDCF6091050182FD0AC0D2
:1027D0008091BC018823D1F09091040160910501A2
:1027E000891728F085E0689FB0011124DACF869F11
:1027F000B001112485E0869F9001879F300D112440
:10280000692F70E0C9010E94011ECBCF65E070E026
:10281000CECF8FE7089581E008958091BB0180FFBE
:102820000CC06091030170E075956795759567958B
:102830006115710549F1862F089581FF06C06091E9
:10284000030170E075956795F3CF6091030182FDF8
:102850000BC09091BC019923A1F06091020180917D
:102860000301961738F0682F70E06038710500F3A7
:102870008FE70895899FC001112470E00E94011E16
:10288000F4CF61E070E0D7CF81E00895803F31F46C
:102890000E94C31381958093BF010895813F19F46D
:1028A0000E94C313F8CF823F31F40E94C313819575
:1028B0008093BE010895833F19F40E94C313F8CF9B
:1028C000893F29F40E940D148093C00108958A3F26
:1028D00021F40E940D148195F7CF8B3F31F40E94B3
:1028E0000D1481958093C10108958C3F19F40E94C5
:1028F0000D14F8CF843F31F48091BD018160809345
:10290000BD010895853F21F48091BD018260F7CF1C
:10291000863F21F48091BD018460F1CF873F21F48F
:102920008091BD018860EBCF883F21F48091BD018B
:102930008061E5CF8D3F31F48091BB018160809350
:10294000BB0108958E3F21F48091BB018260F7CFD7
:102950008F3FB9F78091BB018460F1CF9091BE01A8
:10296000803F41F48091BF0187FD1092BF01992300
:1029700071F00895813F29F48091BF011816ACF3DE
:10298000F6CF823F81F497FFF2CF1092BE01809183
:10299000BF019091C001892B9091C101892B49F70A
:1029A0001092BC010895833F19F4191674F3DFCF18
:1029B000893F39F48091C0011816CCF61092C001FD
:1029C000D6CF8A3F29F48091C00187FFD0CFF6CFC0
:1029D0008B3F39F48091C10187FFC9CF1092C101AB
:1029E000C6CF8C3F29F48091C1011816BCF3BFCF2C
:1029F000843F31F48091BD018E7F8093BD01B7CFBC
:102A0000853F21F48091BD018D7FF7CF863F21F472
:102A10008091BD018B7FF1CF873F21F48091BD0173
:102A2000877FEBCF883F21F48091BD018F7EE5CF7A
:102A30008D3F31F48091BB018E7F8093BB0197CF96
:102A40008E3F21F48091BB018D7FF7CF8F3F09F03E
:102A50008ECF8091BB018B7FF0CF8DEB91E00E94F8
:102A600012060E9406129093BA018093B90108954C
:102A70001F93CF93DF938091B9019091BA010E9487
:102A80001212AC019091BC012091060130E091112D
:102A900006C0209107018AE0289F90011124421767
:102AA000530778F02091BE01C091BF01D091C001C1
:102AB0001091C101211109C08C2F8D2B812B09F0A0
:102AC00074C0DF91CF911F9108959F3F19F09F5FD0
:102AD0009093BC01121624F40E94C3138093BE018C
:102AE0008091BE0187FF05C00E94C313819580932A
:102AF000BE011C1624F40E94C3138093BF01809171
:102B0000BF0187FF05C00E94C31381958093BF0159
:102B10006091BE01662331F1C091BF01CC2311F158
:102B2000062E000C770B880B990B0E94081D23E3DF
:102B300033E343E35FE30E946C1D0E94D01C60936B
:102B4000BE016C2FCC0F770B880B990B0E94081DD0
:102B500023E333E343E35FE30E946C1D0E94D01C38
:102B60006093BF011D1624F40E940D148093C001D0
:102B70008091C00187FF05C00E940D14819580934C
:102B8000C001111624F40E940D148093C10180919C
:102B9000C10187FF05C00E940D1481958093C1017A
:102BA000DF91CF911F910C942D159F3F09F08FCF8E
:102BB000A0CF85E0EDEBF1E0DF011D928A95E9F70A
:102BC0001092BC011092BB0108958091E20108951A
:102BD000CF93DF9300D00F92CDB7DEB79C018091E9
:102BE000EE01843019F593E099833B832A83909317
:102BF000E9008FEF9091E800815095FD06C095EDBA
:102C00009A95F1F700008111F5CF8091E80085FFDA
:102C10000DC050E040E063E070E0CE0101960E94FC
:102C200045188091E8008E778093E8000F900F9010
:102C30000F90DF91CF910895CF93DF9300D00F9243
:102C4000CDB7DEB72091EE01243031F522E02983A3
:102C5000805891099B838A8383E08093E9008FEFFA
:102C60009091E800815095FD06C095ED9A95F1F799
:102C700000008111F5CF8091E80085FF0DC050E084
:102C800040E063E070E0CE0101960E94451880911B
:102C9000E8008E778093E8000F900F900F90DF91FF
:102CA000CF9108959C018091EE018430F9F482E087
:102CB0008093E9009FEF8091E800915085FD06C068
:102CC00085ED8A95F1F700009111F5CF8091E8002C
:102CD00085FF0CC050E040E065E070E0C9010E9453
:102CE00045188091E8008E778093E8000895CF938F
:102CF000DF93EC018091EE018430F1F490911201A8
:102D00009923E9F09091E80197FF19C08093E900B9
:102D10008FEF9091E800815095FD06C095E19A955E
:102D2000F1F700008111F5CF8091E80050E040E01C
:102D300060E270E085FD1AC0DF91CF91089581E0D7
:102D40008093E9008FEF9091E800815095FD06C0D7
:102D500095ED9A95F1F700008111F5CF8091E8008B
:102D600085FFEACF50E040E068E070E0CE010E94CD
:102D700045188091E8008E778093E80080E2FE019C
:102D8000A2ECB1E001900D928A95E1F7D5CF809148
:102D9000ED01811109C00E94D5190E94321A80915B
:102DA000E20084608093E20008951092ED0108959E
:102DB000089508950C94D01142E061EC81E00E94E6
:102DC000511942E061EC82E00E94511942E061EC4D
:102DD00083E00E94511942E261EC84E00C945119A5
:102DE0008091F001833009F455C030F4813071F1E5
:102DF000823009F491C008958A3009F47DC08B3087
:102E000009F463C0893009F044C08091EF01813238
:102E100009F03FC08091F3019091F401009711F007
:102E20000397B9F58091E800877F8093E80080914F
:102E3000E80082FF2AC08091F1008093E201809136
:102E4000E8008B778093E8000C9485198091EF015E
:102E5000813AF9F48091E800877F8093E8008091BF
:102E6000F3019091F401892B61F460E282EC91E02E
:102E700070E00E9494188091E8008B778093E800BE
:102E8000089560E090E080E0F3CF8091EE01811141
:102E9000CECF08958091EF01813AD9F78091F30167
:102EA0009091F401892BA9F78091E800877F8093A6
:102EB000E8008091E80080FFFCCF809112018093B0
:102EC000F1008091E8008E77BDCF8091EF018132D3
:102ED00001F78091F3019091F401892BD1F6809153
:102EE000E800877F8093E8000E9485198091F101B6
:102EF000809312010C948C0A8091EF01813249F683
:102F00008091E800877F8093E8000E948519809176
:102F1000F2018093E30108958091EF01813A09F075
:102F2000B8CF8091E800877F8093E8008091E80027
:102F300080FFFCCF8091E301C2CF84B7877F84BF3D
:102F40000FB6F894A8958091600088618093600026
:102F5000109260000FBE80E88093610010926100C3
:102F60000E944A060E94D5190E94321A8091E200FE
:102F700084608093E20078940E94B51C0E944C0605
:102F800088E091E00E94F6058091EE01853019F00D
:102F90000E945206F9CF0E948D118091EC01882386
:102FA00099F30E94BB11882379F30E942F18ECCF6C
:102FB000292F33272330310521F168F421303105E1
:102FC00009F443C02230310509F444C090E080E0A8
:102FD00030E020E026C02132310551F122323105A6
:102FE000A9F7643098F770E0FB01EE0FFF1FE75E72
:102FF000FE4F208131816B5E7E4FFB01808190E02E
:1030000010C099278130910581F0009729F002972F
:10301000E9F6ECE2F1E002C0E8E5F1E0849190E04D
:103020009F01FA01318320830895E0E4F1E0F6CFB7
:10303000643060F6E62FF0E0EE0FFF1FEF5DFE4F0D
:103040002081318189E090E0ECCF82E190E029ECB1
:1030500031E0E7CF8DE690E02CE531E0E2CF80E192
:1030600089BD82E189BD09B400FEFDCF8091D80001
:103070008F7D8093D8008091E00082608093E00093
:103080008091E00081FDFCCF0895AF92BF92CF9276
:10309000DF92FF920F931F93CF93DF936C01EB01AD
:1030A0008A010E94A419F82E811123C0011511056F
:1030B00039F0F80180819181C81BD90BC80ED91E47
:1030C000B12CA12C2097A9F08091E80085FD22C0A9
:1030D0008091E8008E778093E80001151105A1F03A
:1030E000F80180819181A80EB91EB182A08285E08D
:1030F000F82E8F2DDF91CF911F910F91FF90DF90D0
:10310000CF90BF90AF9008950E94A4198823D1F268
:10311000F82EEFCFF60181916F018093F100219796
:10312000FFEFAF1ABF0ACECFFC018091F50190915D
:10313000F60186179707A0F06115710529F49091A3
:10314000E8009E779093E80090E06115710551F4D6
:10315000911108C08091E80082FF34C080E008959A
:10316000BC01F2CF8091EE018823C1F18530C1F11D
:103170008091E80083FD30C08091E80082FDEACFB5
:103180008091E80080FFE1CF8091F3002091F20070
:10319000382F6115710519F02830310558F091E08C
:1031A0002830310509F090E02091E8002E77209337
:1031B000E800CBCF81918093F100615071092F5FBE
:1031C0003F4FE7CF8091EE01882341F0853041F0F9
:1031D0008091E80083FFBECF81E0089582E00895EA
:1031E00083E00895FC018091F5019091F601861726
:1031F0009707A0F06115710529F48091E8008E779A
:103200008093E80090E06115710551F4911108C0B8
:103210008091E80082FF35C080E00895BC01F2CFC4
:103220008091EE018823C9F18530C9F18091E800D1
:1032300083FD31C08091E80082FDEACF8091E800F3
:1032400080FFE1CF8091F3002091F200382F6115CB
:10325000710519F02830310558F091E0283031051A
:1032600009F090E08091E8008E778093E800CBCF62
:1032700084918093F1003196615071092F5F3F4F27
:10328000E6CF8091EE01882341F0853041F08091B6
:10329000E80083FFBDCF81E0089582E0089583E0D8
:1032A0000895982F973028F08F708093E90081E07F
:1032B00008959093E900242F762F50E0981731F06D
:1032C0007091EC002091ED005091F00021FD02C0C2
:1032D0009F5FE8CF3091EB003E7F3093EB00309161
:1032E000ED003D7F3093ED003091EB003160309385
:1032F000EB007093EC002093ED005093F0002091D0
:10330000EE0027FDE5CF80E008958091EF0187FF73
:1033100013C08091E80082FF06C08091E8008B779F
:103320008093E80004C08091EE018111F2CF0895EE
:103330008091EE018823D9F38091E80080FFF8CFD7
:103340008091E8008E77ECCF2091E4003091E50089
:1033500095E6A9012091EC00822F817020FF06C024
:103360008091E80080FF06C080E008952091E80089
:1033700022FD1AC08091EE01882389F0853089F002
:103380008091EB0085FD0FC02091E4003091E500B5
:1033900042175307F9F29150E1F684E0089582E074
:1033A000089583E0089581E008950E94431A0E94E1
:1033B0004B1AE0EEF0E0808181608083E8EDF0E080
:1033C00080818F77808319BCA7EDB0E08C918E7FD0
:1033D0008C9380818F7E80831092ED0108950F93EE
:1033E0001F93CF93DF930E94431A0E944B1AC8ED9C
:1033F000D0E088818F7788838881806888838881FE
:103400008F7D888319BC1092EE011092EA01109210
:10341000EC011092EB0100EE10E0F80180818B7F4F
:10342000808388818160888342E060E080E00E9440
:103430005119E1EEF0E080818E7F8083E2EEF0E0D2
:10344000808181608083808188608083F8018081B1
:103450008E7F8083888180618883DF91CF911F91E7
:103460000F910895E8EDF0E080818F7E8083E7ED95
:10347000F0E080818160808384E082BF81E080937E
:10348000ED010C94EF19E8EDF0E080818E7F8083F0
:103490001092E20008951092DA001092E10008956F
:1034A0001F920F920FB60F9211242F933F934F93B9
:1034B0005F936F937F938F939F93AF93BF93EF939C
:1034C000FF938091E10082FF0BC08091E20082FFB8
:1034D00007C08091E1008B7F8093E1000E94B41CC3
:1034E0008091DA0080FF19C08091D80080FF15C05C
:1034F0008091DA008E7F8093DA008091D90080FF7E
:1035000096C080E189BD82E189BD09B400FEFDCF8E
:1035100081E08093EE010E94C7168091E10080FF58
:1035200019C08091E20080FF15C08091E2008E7F7B
:103530008093E2008091E20080618093E2008091BC
:10354000D80080628093D80019BC85E08093EE019A
:103550000E94D9168091E10084FF2BC08091E20087
:1035600084FF27C080E189BD82E189BD89B5982F9C
:10357000917080FFFBCF8091D8008F7D8093D80021
:103580008091E1008F7E8093E1008091E2008F7E48
:103590008093E2008091E20081608093E20080915C
:1035A000EA01882309F449C084E08093EE010E9477
:1035B000DA168091E10083FF29C08091E20083FF49
:1035C00025C08091E100877F8093E10082E08093B5
:1035D000EE011092EA018091E1008E7F8093E1007C
:1035E0008091E2008E7F8093E2008091E200806112
:1035F0008093E20042E060E080E00E9451198091F7
:10360000F00088608093F0000E94D816FF91EF913F
:10361000BF91AF919F918F917F916F915F914F91EA
:103620003F912F910F900FBE0F901F90189519BCCE
:103630001092EE010E94D51670CF8091E30087FDB5
:1036400093E09093EE01B3CF1F920F920FB60F92BB
:1036500011242F933F934F935F936F937F938F9397
:103660009F93AF93BF93CF93DF93EF93FF93D0914B
:10367000E900DF708091EC00C82FC17080FDC0E8C8
:103680001092E9008091F000877F8093F000789499
:103690000E94681B1092E9008091F000886080937E
:1036A000F000CD2BCF70C093E900FF91EF91DF9137
:1036B000CF91BF91AF919F918F917F916F915F91CA
:1036C0004F913F912F910F900FBE0F901F90189523
:1036D0001F93CF93DF93CDB7DEB7AA970FB6F894B9
:1036E000DEBF0FBECDBF8FEE91E02091F100FC0157
:1036F0002193CF01F1E0873F9F07B9F70E94F016B1
:103700008091E80083FF82C08091EF019091F001E9
:103710009A3008F07BC0E92FF0E0E455F14E0C94AC
:10372000151E803881F0823809F070C08091F30155
:103730008F708093E9008091EB0085FB882780F9EA
:103740001092E90006C08091EB019091EC0191117B
:1037500082609091E800977F9093E8008093F10059
:103760001092F1008091E8008E77F9C0882309F467
:10377000E6C0823009F04AC08091F1018111EAC0AF
:103780008091F3018F7009F441C08093E90020918A
:10379000EB0020FFDFC0933031F48091EB008062BA
:1037A0008093EB00D7C09091EB0090619093EB0079
:1037B00021E030E001C0220F8A95EAF72093EA0069
:1037C0001092EA008091EB008860EACF81111EC060
:1037D0001091F1011F778091E3008078812B809315
:1037E000E3008091E800877F8093E8000E948519BC
:1037F0008091E80080FFFCCF8091E3008068809397
:10380000E30082E0111183E08093EE018091E800F3
:1038100083FF0AC08091E800877F8093E800809151
:10382000EB0080628093EB00AA960FB6F894DEBF9F
:103830000FBECDBFDF91CF911F9108958058823088
:1038400028F78091F1019091F2018C3D23E09207DD
:10385000A1F583E08A838AE289834FB7F894DE0179
:10386000139620E03EE051E2E32FF0E05093570042
:10387000E49120FF03C0E295EF703F5FEF708E2F61
:1038800090E0EA30C0F0C7968D939D932F5F24316E
:1038900059F74FBF8091E800877F8093E8006AE284
:1038A00070E0CE0101960E9494188091E8008B7719
:1038B0008093E800ABCFC096E7CFAE014F5F5F4F7C
:1038C0006091F3010E94D817BC01892B09F49ECFA7
:1038D0009091E800977F9093E80089819A810E94F7
:1038E000F218E3CF803809F091CF8091E800877F0C
:1038F0008093E8008091EA018093F10033CF811139
:1039000085CF9091F101923008F080CF8091E8004E
:10391000877F8093E8009093EA010E948519809147
:10392000EA01882311F084E005C08091E30087FD5F
:10393000FACF81E08093EE010E94DC1667CF809180
:10394000F101813009F062CF81E0933009F080E02D
:103950008093EC011092E9008091E800877F8093CA
:10396000E8000E94851952CF0895CF938091EE010F
:103970008823A1F0C091E900CF709091EC00892FCD
:10398000817090FD80E8C82B1092E9008091E800DA
:1039900083FD0E94681BCF70C093E900CF9108950A
:1039A0000E94D71C6894B1110C94661D08950E9462
:1039B0004B1D88F09F5798F0B92F9927B751B0F059
:1039C000E1F0660F771F881F991F1AF0BA95C9F7A3
:1039D00014C0B13091F00E94651DB1E008950C94BF
:1039E000651D672F782F8827B85F39F0B93FCCF372
:1039F000869577956795B395D9F73EF49095809520
:103A0000709561957F4F8F4F9F4F0895E89409C03F
:103A100097FB3EF490958095709561957F4F8F4F01
:103A20009F4F9923A9F0F92F96E9BB279395F69517
:103A3000879577956795B795F111F8CFFAF4BB0F95
:103A400011F460FF1BC06F5F7F4F8F4F9F4F16C0F9
:103A5000882311F096E911C0772321F09EE8872F83
:103A6000762F05C0662371F096E8862F70E060E03F
:103A70002AF09A95660F771F881FDAF7880F9695B8
:103A8000879597F9089557FD9058440F551F59F0A1
:103A90005F3F71F04795880F97FB991F61F09F3F3B
:103AA00079F087950895121613061406551FF2CF64
:103AB0004695F1DF08C0161617061806991FF1CFB4
:103AC00086957105610508940895E894BB276627DB
:103AD0007727CB0197F908950E947F1D0C94F01D64
:103AE0000E94E21D38F00E94E91D20F0952311F09C
:103AF0000C94D91D0C94DF1D11240C94661D0E949A
:103B0000431D70F3959FC1F3950F50E0551F629FC1
:103B1000F001729FBB27F00DB11D639FAA27F00D26
:103B2000B11DAA1F649F6627B00DA11D661F829F4D
:103B30002227B00DA11D621F739FB00DA11D621F32
:103B4000839FA00D611D221F749F3327A00D611D4F
:103B5000231F849F600D211D822F762F6A2F112431
:103B60009F5750409AF0F1F088234AF0EE0FFF1F64
:103B7000BB1F661F771F881F91505040A9F79E3FBB
:103B8000510580F00C94D91D0C94661D5F3FE4F341
:103B9000983ED4F3869577956795B795F795E79511
:103BA0009F5FC1F7FE2B880F911D9695879597F91A
:103BB000089597F99F6780E870E060E008959FEFAF
:103BC00080EC089500240A941616170618060906B4
:103BD000089500240A941216130614060506089583
:103BE000092E0394000C11F4882352F0BB0F40F40B
:103BF000BF2B11F460FF04C06F5F7F4F8F4F9F4F4B
:103C0000089597FB072E16F4009407D077FD09D08E
:103C10000E941B1E07FC05D03EF4909581959F4F96
:103C20000895709561957F4F0895EE0FFF1F0590E1
:103C3000F491E02D0994AA1BBB1B51E107C0AA1FF8
:103C4000BB1FA617B70710F0A61BB70B881F991F3D
:103C50005A95A9F780959095BC01CD010895F999E1
:103C6000FECF92BD81BDF89A992780B50895A8E14D
:103C7000B0E042E050E00C94571E262FF999FECF99
:103C800092BD81BDF89A019700B4021639F01FBAAF
:103C900020BD0FB6F894FA9AF99A0FBE08950196CE
:103CA000272F0E943E1E0C943D1EDC01CB01FC011F
:103CB000F999FECF06C0F2BDE1BDF89A319600B485
:103CC0000D9241505040B8F70895F894FFCF6B0221
:103CD00077027B027F02830287028B028F029302AC
:103CE00097029B029F02A302A702AB02AF02B3029C
:103CF000B70283088308D308D30815093109B0082F
:103D0000B0083C09B008D409D409320AB008B00898
:103D10003B0ADE09DE09DE09DE09DE09DE09DE090D
:103D2000DE09DE09DE09DE09DE09DE09DE09DE095B
:103D3000DE09EB09F909000A070A110A9D0A9D0A22
:103D4000A60AA60AA80AA60AA60AA60A9D0A9D0A03
:103D5000AD0AA60AA60AAD0A911BB61B061CB61B25
:0C3D6000061CE61B1E1C061C721C7F1CAF
:103D6C0094012808140A321EE515771652161C16F3
:103D7C00E815019466404D363997024A021402DB6D
:0A3D8C00016E018701A001B90100DA
:00000001FF
